:020000040000FA
:040000000128FE2FA6
:100F540021000C110E108E100E1117100130F2002A
:100F64000030F300F101F10A7218B92FBC2F2200EE
:100F74000C15BE2F22000C11F218C12FC42F220011
:100F84000E14C62F22000E107219C92FCC2F220066
:100F94008E14CE2F22008E10F219D12FD42F2200BE
:100FA4000E15D62F22000E11D030F000CA30890B56
:100FB400D92FF00BD92F7103031DE12FE22FF12F4D
:100FC4000130F235F30D890BE32F721EEA2FEB2F5C
:100FD400B62F0830F2000030F300F101B62F0130D3
:100FE400F337F20C890BF22F72087304031DFB2FE5
:0C0FF400FC2FB62FB02F01282000AA2FE0
:020000040001F9
:02001000F13FBE
:02001400FF3FAC
:00000001FF
